{
  "contractName": "Weth",
  "abi": [
    {
      "inputs": [],
      "name": "deposit",
      "outputs": [],
      "stateMutability": "payable",
      "type": "function"
    },
    {
      "inputs": [
        {
          "internalType": "address",
          "name": "spender",
          "type": "address"
        },
        {
          "internalType": "uint256",
          "name": "amount",
          "type": "uint256"
        }
      ],
      "name": "approve",
      "outputs": [],
      "stateMutability": "nonpayable",
      "type": "function"
    },
    {
      "inputs": [
        {
          "internalType": "address",
          "name": "owner",
          "type": "address"
        },
        {
          "internalType": "address",
          "name": "spender",
          "type": "address"
        }
      ],
      "name": "allowance",
      "outputs": [
        {
          "internalType": "uint256",
          "name": "",
          "type": "uint256"
        }
      ],
      "stateMutability": "view",
      "type": "function"
    },
    {
      "inputs": [
        {
          "internalType": "address",
          "name": "owner",
          "type": "address"
        }
      ],
      "name": "balanceOf",
      "outputs": [
        {
          "internalType": "uint256",
          "name": "",
          "type": "uint256"
        }
      ],
      "stateMutability": "view",
      "type": "function"
    }
  ],
  "bytecode": "0x608060405234801561001057600080fd5b5061029b806100206000396000f3fe60806040526004361061003f5760003560e01c8063095ea7b31461004457806370a082311461006d578063d0e30db0146100aa578063dd62ed3e146100b4575b600080fd5b34801561005057600080fd5b5061006b60048036038101906100669190610195565b6100f1565b005b34801561007957600080fd5b50610094600480360381019061008f9190610130565b6100f5565b6040516100a191906101e0565b60405180910390f35b6100b26100fc565b005b3480156100c057600080fd5b506100db60048036038101906100d69190610159565b6100fe565b6040516100e891906101e0565b60405180910390f35b5050565b6000919050565b565b600092915050565b60008135905061011581610237565b92915050565b60008135905061012a8161024e565b92915050565b60006020828403121561014257600080fd5b600061015084828501610106565b91505092915050565b6000806040838503121561016c57600080fd5b600061017a85828601610106565b925050602061018b85828601610106565b9150509250929050565b600080604083850312156101a857600080fd5b60006101b685828601610106565b92505060206101c78582860161011b565b9150509250929050565b6101da8161022d565b82525050565b60006020820190506101f560008301846101d1565b92915050565b60006102068261020d565b9050919050565b600073ffffffffffffffffffffffffffffffffffffffff82169050919050565b6000819050919050565b610240816101fb565b811461024b57600080fd5b50565b6102578161022d565b811461026257600080fd5b5056fea2646970667358221220bf9b688f1e4ebc88b86de5c6fb7f2b0dde3571a5f635611fb9588abb4dc32de264736f6c63430008000033",
  "immutableReferences": {},
  "source": "// SPDX-License-Identifier: MIT\r\npragma solidity ^0.8.0;\r\n\r\ncontract Weth {\r\n  function deposit() public payable {}\r\n  function approve(address spender, uint amount) external {}\r\n  function allowance(address owner, address spender) external view returns(uint) {}\r\n  function balanceOf(address owner) external view returns(uint) {}\r\n}",
  "sourcePath": "C:/Users/Dell/Desktop/UniswapSwapTokenScripts/contracts/Weth.sol",
  "compiler": {
    "name": "solc",
    "version": "0.8.0+commit.c7dfd78e.Emscripten.clang"
  },
  "schemaVersion": "3.3.2",
  "updatedAt": "2021-08-23T12:51:03.836Z",
  "devdoc": {
    "kind": "dev",
    "methods": {},
    "version": 1
  },
  "userdoc": {
    "kind": "user",
    "methods": {},
    "version": 1
  }
}